:1000000003308A00632B0000FF00030E8301A10070
:100010007F08A0000A08A7008A01A00E0408A20019
:100020007708A3007808A4007908A5007A08A6003C
:10003000831383128C308400801E20288C1A492858
:100040008B1E24280B198628220884002308F70019
:100050002408F8002508F9002608FA0027088A0075
:10006000210E8300FF0E7F0E09000A108A100A116C
:1000700082070034013402340334053407340A346F
:100080000D34113416341B34213427342F343734D3
:100090004034A0303807840083130317B9010408E3
:1000A000B8003910831B391403138C1E5528180807
:1000B000A8001A08F800A81C5F28181218160317C1
:1000C0003808840083133918831778088000A0301B
:1000D000031338078400831300080317B6000313C3
:1000E0000C1E7028990038080317B500013003135F
:1000F00038073F39B80039083802031D8328031731
:1001000035080313B8008C128A112428291CE22810
:100110002C082A02031C8E2885118F2885152D088E
:100120002A02031C95280511962805152E082A0277
:10013000031C9C2806109D2806142F082A02031C65
:10014000A3280510A428051430082A02031CAA2895
:100150008510AB28851431082A02031CB1288513A9
:10016000B228851732082A02031CB8288612B9283B
:10017000861633082A02031CBF280613C028061758
:1001800034082A02031CC6280612C728061635089A
:100190002A02031CCD288613CE28861736082A0289
:1001A000031CD4280513D528051737082A02031C79
:1001B000DB288611DC288615AA0A2A08403C031D84
:1001C000E228AA010B118A112428E130840083134C
:1001D00000080319F9280130F800F701F70BEE28A1
:1001E000F80BED284A30F700F70BF428F728800BBE
:1001F000EB280800390838020319FA28A03039071B
:100200008400831300080317B30001300313390778
:100210003F39B90003173308F800031308008316A9
:10022000E10183120317A001A101A201A301A4010E
:10023000A501A601A701A801A901AA01AB01AC0172
:10024000AD01AE01AF010313FA2078088316E10077
:100250006108AA3C031D542B8312FA207808031767
:10026000A000200EF7000F30F7057708FF3EF73E9D
:100270000318522B093E0313562B01308316E2005C
:100280006208073C031C5B2920306207F80001303C
:10029000FA000318FA0A7808E3007A08E4008312E7
:1002A000FA20831663088400831364188317780880
:1002B0008000E20A402983120317270F602966296C
:1002C00003132B0803172702031DB62983160313F4
:1002D000E2016208063C031CB4290310620D2C3EA7
:1002E000F800FA010318FA0A7808E3007A08E40033
:1002F00001306207203E84008317000EF7000F30A4
:10030000F705770883123520F80083166308840008
:10031000831364188317780880000310620D013E70
:100320002C3EF800FA010318FA0A7808E3007A086C
:10033000E40001306207203E84008317000EF700BE
:10034000F030F7057708F70E0F30F70577088312BE
:100350003520F8008316630884008313641883171C
:1003600078088000E20A692983120317522BFA20C9
:1003700078080317A1000313FA2078080317A200D6
:10038000220FC329C92903132B0803172202031DB7
:10039000012A200EF700F030F7057708F70E0F302E
:1003A000F705770803133520F800AC000317210E7A
:1003B000F7000F30F705770803133520F800AD007C
:1003C0000317210EF700F030F7057708F70E0F300E
:1003D000F705770803133520F800AE002C08AF00AE
:1003E0002D08B0002E08B1002C08B2002D08B30073
:1003F0002E08B4002C08B5002D08B6002E08B70052
:100400000317522BFA2078080317A100210F092A9D
:100410000F2A03132B0803172102031D392A831601
:100420000313E20162080B3C031C372A0130620708
:10043000E3002C306207840083130008E4006308A3
:100440009B0064089A001C1583120B08F7008B139D
:10045000831655309D00AA309D009C149C182E2AAE
:100460001C11770883128B048316E20A122A831266
:100470000317522BFA2078080317A100210F412AF5
:10048000472A03132B0803172102031D5F2A831633
:100490000313E20162080B3C031C5D2A2C30620747
:1004A0008400831301306207E50065089B009C13FC
:1004B0001C141A088000E20A4A2A83120317522BDE
:1004C000FA2078080317A100210F672A6D2A031369
:1004D0002B0803172102031D732A03132B080C1E7C
:1004E0006F2A99000317522BFA2078080317A100EE
:1004F0000313FA2078080317A200220F802A862A05
:1005000003132B0803172202031DAD2A0313AB08A4
:1005100003198C2A0317AD2A83169B018312031734
:100520002108831603139A001C1583120B08F70089
:100530008B13831655309D00AA309D009C149C1887
:100540009F2A1C11770883128B0483169B019C132E
:100550001C141A088312AB000317522BFA207808D8
:100560000317A100210FB52ABB2A03132B08031779
:100570002102031DBB2A522B01308316E2006208C0
:100580000D3C031CDA2A20306207F8000130FA0023
:100590000318FA0A7808E3007A08E4008312FA20C4
:1005A0008316630884008313641883177808800017
:1005B000E20ABF2A831203172D0FDF2AE52A03134D
:1005C0002B0803172D02031D082B83160313E201CA
:1005D00062080B3C031C062B2C306207F800FA0162
:1005E0000318FA0A7808E3007A08E4000130620789
:1005F000203E840083170008E5006308840083130D
:100600006418831765088000E20AE82A831203173A
:10061000522B01308316E2006208043C031C272B96
:1006200020306207F8000130FA000318FA0A78084F
:10063000E3007A08E4008312FA208316630884003A
:1006400083136418831778088000E20A0C2B831246
:100650000317240F2C2B322B03132B080317240210
:10066000031D502B21080313AC00031722080313AA
:10067000AD00031723080313AE002C08AF002D08AC
:10068000B0002E08B1002C08B2002D08B3002E08CF
:10069000B4002C08B5002D08B6002E08B7000317CB
:1006A000522B0317831603138312B72B0A148A14D1
:1006B0000A1182073D29B729022A3A2A602A742A98
:1006C000AE2ABC2A092B840183131F3083050C300A
:1006D00083169900A6309800903083129800291054
:1006E000AA01AB01B801B90107309F00A801C830C9
:1006F0008316E1008312E520291083160108C7390B
:10070000083881008312810183168C1683128B16A0
:10071000C0308B0483168511051106100510851055
:100720008513861206130612861305138611E0013F
:1007300060080B3C031CAB2B2C3060078400831338
:1007400001306007E30063089B009C131C141A0827
:100750008000E00A982B9B019C131C141A0883123A
:10076000AB00C8308316E1008312E5202914390854
:0E07700038020319BD2B0F29B72BB72B6300DE
:1042000000000100010001000100010001000100A7
:0A421000010001000100010001009F
:02400E00303F41
:00000001FF
;PIC16F628
;CRC=E2E1  CREATED="16-Feb-10 12:17"
