:1000000000308A00252B0000FF00030E8301A100B1
:100010007F08A0000A08A8008A01A00E0408A20018
:100020007708A3007808A4007908A5007A08A6003C
:100030007B08A700831383128B1E20280B196E28C0
:100040008C308400801E26288C1A4D2822088400BB
:100050002308F7002408F8002508F9002608FA000C
:100060002708FB0028088A00210E8300FF0E7F0E60
:1000700009000A108A100A11820700340134023480
:100080000334053407340A340D34113416341B3468
:10009000213427342F343734403438305807840023
:1000A00083138C1E51281A088000383058078400AA
:1000B00083130008F50075080C1E5C289900580889
:1000C000F400013058071F39D80059085802031DA1
:1000D0006B287408D8008C128A112628291C122932
:1000E0002C082A02031C7928831685118312851196
:1000F0007D2883168511831285152D082A02031C7D
:10010000862883160511831205118A288316051186
:10011000831205152E082A02031C93288316061045
:1001200083120610972883160610831206142F08D0
:100130002A02031CA0288316051083120510A42888
:10014000831605108312051430082A02031CAD28FB
:100150008316851083128510B128831685108312AB
:10016000851431082A02031CBA28831685138312CA
:100170008513BE28831685138312851732082A0239
:10018000031CC7288316861283128612CB28831677
:1001900086128312861633082A02031CD42883167B
:1001A000061383120613D828831606138312061724
:1001B00034082A02031CE128831606128312061251
:1001C000E528831606128312061635082A02031C38
:1001D000EE288316861383128613F228831686135D
:1001E0008312861736082A02031CFB288316051380
:1001F00083120513FF28831605138312051737088A
:100200002A02031C082983168611831286110C29E1
:100210008316861183128615AA0A2A08403C031DFC
:100220001229AA010B118A1126285B30840083133E
:100230000008031929290130F800F701F70B1E29DE
:10024000F80B1D294A30F700F70B24292729800BCA
:100250001B2900345908580203192A293830590734
:10026000840083130008EE00013059071F39D900BC
:100270006E08F8000034DB01DC01DD01DE01DF0186
:10028000E001E101E201E301E401E501E601E7014A
:10029000E801E901EA012A217808DB005B0EF7009A
:1002A0000F30F7057708FF3EF73E0318172B093E7E
:1002B000182B0130EB006B08073C031C73295B30E3
:1002C0006B07F800FA010318FA0A7808EC007A08BC
:1002D000ED002A216C08840083136D1883177808B9
:1002E0008000EB0A5B29620F76297A292B086202CB
:1002F000031DC229EB016B08063C031CC229031035
:100300006B0D2C3EF800FA010318FA0A7808ED008C
:100310007A08EE0001306B075B3E84008313000E09
:10032000F7000F30F70577083920F8006D088400D2
:1003300083136E1883177808800003106B0D013E3D
:100340002C3EF800FA010318FA0A7808EE007A0841
:10035000EF0001306B075B3E84008313000EF70053
:10036000F030F7057708F70E0F30F70577083920DA
:10037000F8006E08840083136F18831778088000D4
:10038000EB0A7B29172B2A217808DC002A21780820
:10039000DD005D0FCC29D0292B085D02031D022A48
:1003A0005B0EF700F030F7057708F70E0F30F70512
:1003B00077083920F800AC005C0EF7000F30F70525
:1003C00077083920F800AD005C0EF700F030F70533
:1003D0007708F70E0F30F70577083920F800AE00E0
:1003E0002C08AF002D08B0002E08B1002C08B20078
:1003F0002D08B3002E08B4002C08B5002D08B60057
:100400002E08B700172B2A217808DC005C0F092A78
:100410000D2A2B085C02031D352AEB016B080B3CEF
:10042000031C352A01306B07EC002C306B0784006D
:1004300083130008ED006C0883169B0083126D087F
:1004400083169A001C1583120B08F7008B13831672
:1004500055309D00AA309D009C149C182D2A1C111B
:10046000770883128B04EB0A0E2A172B2A217808AF
:10047000DC005C0F3C2A402A2B085C02031D562A34
:10048000EB016B080B3C031C562A2C306B078400D5
:10049000831301306B07EE006E0883169B009C13DC
:1004A0001C141A0880008312EB0A412A172B2A21F8
:1004B0007808DC005C0F5D2A612A2B085C02031DB2
:1004C000652A2B080C1E622A9900172B2A2178080E
:1004D000DC002A217808DD005D0F6F2A732A2B08C3
:1004E0005D02031D942AAB08031D942A83169B0109
:1004F00083125C0883169A001C1583120B08F70000
:100500008B13831655309D00AA309D009C149C18B7
:10051000872A1C11770883128B0483169B019C1376
:100520001C141A088312AB00172B2A217808DC0050
:100530005C0F9B2A9F2A2B085C02031D9F2A172B06
:100540000130EB006B080D3C031CBA2A5B306B07D3
:10055000F800FA010318FA0A7808EC007A08ED00AE
:100560002A216C08840083136D1883177808800093
:10057000EB0AA22A680FBD2AC12A2B086802031DB4
:10058000DC2AEB016B080B3C031CDC2A2C306B07CC
:10059000F800FA010318FA0A01306B075B3E840089
:1005A00083130008EF007808840083137A188317F8
:1005B0006F088000EB0AC22A172B0130EB006B0892
:1005C000043C031CF72A5B306B07F800FA010318A0
:1005D000FA0A7808EC007A08ED002A216C088400F9
:1005E00083136D18831778088000EB0ADF2A5F0FEA
:1005F000FA2AFE2A2B085F02031D162B5C08AC00AA
:100600005D08AD005E08AE002C08AF002D08B000FC
:100610002E08B1002C08B2002D08B3002E08B4003B
:100620002C08B5002D08B6002E08B700172B6A2B32
:100630000A148A140A1182075929C329032A362A5F
:10064000572A662A952AA02ADD2A840183131F309F
:1006500083050C3083169900A630980090308312E1
:10066000980007309F002910AA01AB01D801D901D9
:10067000C830DB001521291083160108C739083856
:1006800081008312810183168C1683128B16C03071
:100690008B04DA015A080B3C031C5F2B2C305A07E1
:1006A0008400831301305A07DD005D0883169B0028
:1006B0009C131C141A0880008312DA0A4A2B831632
:1006C0009B019C131C141A088312AB00C830DB007A
:1006D0001521291459085802031D3B296A2B630070
:1042000000000100010001000100010001000100A7
:0A421000010001000100010001009F
:02400E00303F41
:00000001FF
;PIC16F628
