:0E00020008308A003F2D0000FF00030E83012E
:10001000A1007F08A0000A08A8008A01A00E040819
:10002000A2007708A3007808A4007908A5007A0840
:10003000A6007B08A700831383128C308400801EE7
:1000400023288C1A3628220884002308F700240865
:10005000F8002508F9002608FA002708FB00280800
:100060008A00210E8300FF0E7F0E09008A116F287F
:100070000A108A100A11820724344734503452344B
:100080004D3443342C3400340A108A100A1182078C
:1000900041342C3400348C1E4B281808AA001A084E
:1000A000F800AA1C55281812181600008A11762884
:1000B00083164608F8014502031861284508F70031
:1000C0006D28F7010830C700C50DF70D4608770207
:1000D0000318F700F80DC70B642883120034493069
:1000E000750784008316C40083124B2883164408C6
:1000F0008400780880007508C20001307507C400CC
:10010000C5002C30C600831258207708F500760809
:100110007502031D8F2883164208F50083128C1286
:100120008A11232883160617861783128A15932DA2
:100130007C30840000080319AA280230F800F70177
:10014000F70BA028F80B9F289730F700F70BA6288D
:10015000800B9D280034760875020319AB284930BE
:100160007607840000088316AB0001307607AD00E7
:100170008312A9018B1BA9178B1383162D08C500A9
:100180002C30C60083125820A91B8B177708F60065
:1001900083162B08F80083120034F701F801831648
:1001A000310803103218F707F70CF80CB218F707EC
:1001B000F70CF80C3219F707F70CF80CB219F7071F
:1001C000F70CF80C321AF707F70CF80CB21AF7070D
:1001D000F70CF80C321BF707F70CF80CB21BF707FB
:1001E000F70CF80C83128A118D2910308316B60093
:1001F000F701FA01B30CB20C031C04293408F70709
:100200000318FA0A3508FA07FA0CF70CF90CF80C7F
:10021000B60BFA2883128A11642AFE018316AA01FA
:10022000AA018312AB207808FE007C087E02031925
:100230002529A03083162A0784007E088000AA0A98
:100240008312AB207808FE001529A03083162A07F8
:10025000840080017D08083C031DFC29A030AB0010
:10026000AF01AD010A30AE00AC01AB08031D3B2964
:100270000030F800F5292F08AF0A2B07840000088A
:10028000B00030082D3C031D4E290130AD002F0871
:10029000AF0A2B0784000008B000582930082B3C17
:1002A000031D58292F08AF0A2B0784000008B0004F
:1002B00030082F3C0318EB293008393C031CEB298C
:1002C0003008303C031D7B292B082F0784000008D1
:1002D000783C031972292B082F0784000008583C2A
:1002E000031D7B291030AE00AF0A2F08AF0A2B0781
:1002F00084000008B0002E080A3C031D9C29300829
:100300002F3C03189B293008393C031C9B290A30D9
:10031000B1002C08B2008312CD2878088316B100F2
:10032000303030023107AC002F08AF0A2B078400B1
:100330000008B0007F29EB292E08103C031DEB2993
:100340003008603C0318AB2930087A3C031CAB2909
:100350003008DF39AC293008B00030082F3C0318D2
:10036000B5293008393C0318BD293008403C031832
:10037000EB293008463C031CEB2930082F3C0318BE
:10038000CE293008393C031CCE292C0EB100F030A8
:10039000B105303030023107AC00D7292C0EB10046
:1003A000F030B105413030020A3E3107AC002F0871
:1003B000AF0A2B0784000008B0003008603C031827
:1003C000E82930087A3C031CE8293008DF39E9299C
:1003D0003008B000AD292D0BF3292E080A3C031D6F
:1003E000F329AC09AC0A2C08F8007808F700F801EA
:1003F000F901FA014F2C4F2C7D08103C031DF62A01
:10040000A030AB00B001AE010A30AF00AD01AC01CD
:10041000AB08031D0F2A0030F800F900EE2A30085F
:10042000B00A2B0784000008B10031082D3C031DE1
:10043000222A0130AE003008B00A2B0784000008E1
:10044000B1002C2A31082B3C031D2C2A3008B00A9D
:100450002B0784000008B10031082F3C0318DF2A65
:100460003108393C031CDF2A3108303C031D4F2A78
:100470002B08300784000008783C0319462A2B0813
:10048000300784000008583C031D4F2A1030AF008D
:10049000B00A3008B00A2B0784000008B1002F080A
:1004A0000A3C031D792A31082F3C0318782A3108A9
:1004B000393C031C782AB3010A30B2002D08B5007C
:1004C0002C08B4008312F52879088316B300780845
:1004D000B200303031023207AC003308AD000318EF
:1004E000AD0A3008B00A2B0784000008B100532A77
:1004F000DF2A2F08103C031DDF2A3108603C031857
:10050000882A31087A3C031C882A3108DF39892A75
:100510003108B10031082F3C0318922A3108393CC8
:1005200003189A2A3108403C0318DF2A3108463C58
:10053000031CDF2A31082F3C0318B72A3108393C45
:10054000031CB72A2C0DB2002D0DB300B20DB30D54
:10055000B20DB30DB20DB30DF030B2053030310233
:100560003207AC003308AD000318AD0ACC2A2C0DBD
:10057000B2002D0DB300B20DB30DB20DB30DB20D1F
:10058000B30DF030B205413031020A3E3207AC0003
:100590003308AD000318AD0A3008B00A2B078400F9
:1005A0000008B100603C0318DC2A31087A3C031CC7
:1005B000DC2A3108DF39DD2A3108B1008A2A2F0808
:1005C0000A3C031DEA2A2E0BEA2AAC09AD09AC0A43
:1005D0000319AD0A2C08F8002D08F9007808F70077
:1005E0007908F800F901FA014F2C4F2C7D08203CC6
:1005F000031D4F2CA030AB00B201B0010A30B10096
:10060000AF01AE01AD01AC01AB08031D0C2BF7012E
:10061000F801F901FA014E2C3208B20A2B078400C6
:100620000008B30033082D3C031D1F2B0130B00020
:100630003208B20A2B0784000008B300292B3308C4
:100640002B3C031D292B3208B20A2B07840000081B
:10065000B30033082F3C0318352C3308393C031CF6
:10066000352C3308303C031D4C2B2B0832078400FB
:100670000008783C0319432B2B083207840000083C
:10068000583C031D4C2B1030B100B20A3208B20A9C
:100690002B0784000008B30031080A3C031D9F2B80
:1006A00033082F3C03189E2B3308393C031C9E2B28
:1006B00003102C0DB5002D0DB6002E0DB7002F0D1B
:1006C000B8002C0DF7002D0DF8002E0DF9002F0DA0
:1006D000FA00F70DF80DF90DFA0DF70DF80DF90DFB
:1006E000FA0DF830F70577083507AC003608AD008D
:1006F00078080318780FAD073708AE00790803189B
:10070000790FAE073808AF007A0803187A0FAF07E1
:1007100030303302AC07003003180130AD07003031
:1007200003180130AE07003003180130AF0732085C
:10073000B20A2B0784000008B300502B352C310877
:10074000103C031D352C3308603C0318AE2B3308D6
:100750007A3C031CAE2B3308DF39AF2B3308B300D0
:1007600033082F3C0318B82B3308393C0318C02B2F
:100770003308403C0318352C3308463C031C352C09
:1007800033082F3C0318F52B3308393C031CF52B99
:100790002C0DB5002D0DB6002E0DB7002F0DB80095
:1007A000B50DB60DB70DB80DB50DB60DB70DB80D2D
:1007B000B50DB60DB70DB80DF030B50530303302BC
:1007C0003507AC003608AD00003003180130AD0726
:1007D0003708AE00003003180130AE073808AF000C
:1007E000003003180130AF07222C2C0DB5002D0D61
:1007F000B6002E0DB7002F0DB800B50DB60DB70D14
:10080000B80DB50DB60DB70DB80DB50DB60DB70DCC
:10081000B80DF030B505413033020A3E3507AC0063
:100820003608AD00003003180130AD073708AE00C0
:10083000003003180130AE073808AF00003003184D
:100840000130AF073208B20A2B0784000008B3005A
:10085000603C0318322C33087A3C031C322C3308DA
:10086000DF39332C3308B300B02B31080A3C031DA9
:10087000462C300B462CAC09AD09AE09AF09AC0AC9
:100880000319AD0A0319AE0A0319AF0A2C08F700C1
:100890002D08F8002E08F9002F08FA004F2C8312BB
:1008A0000034AB207808C8002C30FC002030FD005C
:1008B0000D217A08B3007908B2007808B1007708F2
:1008C000B000AB207808B400AB207808C8002E3008
:1008D000FC001030FD000D217808B6007708B50047
:1008E0002C30FC001030FD000D217808B80077088E
:1008F000B700AB207808B900AB207808C8002E30CC
:10090000FC001030FD000D217808BB007708BA000C
:100910002C30FC001030FD000D217808BD00770858
:10092000BC00AB207808BE00AB207808C8002E3091
:10093000FC001030FD000D217808C0007708BF00D2
:100940002C30FC001030FD000D217808C200770823
:10095000C1008A15ED2D0830F800000000000613D4
:10096000831606130000B40D83128613031CBB2CE0
:100970008316861783120318C02C831686138312DE
:10098000831606178312061BC72C8316C22CF80B7E
:10099000AD2C000006138316061300008617000016
:1009A000000006178312061BD72C8316D22CF801E1
:1009B0000000861B78140613831606138312861311
:1009C00083168613831200348316861700000617D9
:1009D0000000831286138316861300008312061309
:1009E0008316061303107D0DA038A60000302218D0
:1009F0000130A700270DF700F70DF70DF830F705C8
:100A000077082604A900B4008312AB2483162108BA
:100A1000A6002208A7002308A800A9012108B40005
:100A20008312AB2483162008B4008312AB247E0803
:100A30008316B4008312AB248316861300000617B6
:100A40008312061B252D8316202D000000000000B8
:100A500000008316861700008617000006170000A6
:100A600083128613831686130000831206138316DF
:100A7000061303107D0DA038A500003022180130A8
:100A8000F700F70DF70DF70DF830F7057708250497
:100A9000A700B4008312AB2478087818532D83166E
:100AA0002410552D831283162414241C852D86179B
:100AB0000000061700008312061B602D83165B2DB5
:100AC00086138316861300008312061383160613FB
:100AD00003107D0DA038A500003022180130F7006A
:100AE000F70DF70DF70DF830F70577082504A70087
:100AF000B4008312AB2478087818822D8316241052
:100B0000842D831283162414552D83120034330848
:100B1000FC00FD0147088316A300831246088316D4
:100B2000A200831245088316A1008312440883168D
:100B3000A0007C08FE008312E4240130C4070318DF
:100B4000C50A0319C60A0319C70A3208FC00FD01C9
:100B500047088316A300831246088316A200831257
:100B600045088316A100831244088316A0007C0860
:100B7000FE008312E4240130C4070318C50A0319D8
:100B8000C60A0319C70A3108FC00FD01470883168D
:100B9000A300831246088316A20083124508831619
:100BA000A100831244088316A0007C08FE00831273
:100BB000E4240130C4070318C50A0319C60A03193F
:100BC000C70A3008FC00FD0147088316A300831202
:100BD00046088316A200831245088316A1008312DB
:100BE00044088316A0007C08FE008312E424013030
:100BF000C4070318C50A0319C60A0319C70A360829
:100C0000FC00FD0147088316A300831246088316E3
:100C1000A200831245088316A1008312440883169C
:100C2000A0007C08FE008312E4240130C4070318EE
:100C3000C50A0319C60A0319C70A3508FC00FD01D5
:100C400047088316A300831246088316A200831266
:100C500045088316A100831244088316A0007C086F
:100C6000FE008312E4240130C4070318C50A0319E7
:100C7000C60A0319C70A3808FC00FD014708831695
:100C8000A300831246088316A20083124508831628
:100C9000A100831244088316A0007C08FE00831282
:100CA000E4240130C4070318C50A0319C60A03194E
:100CB000C70A3708FC00FD0147088316A30083120A
:100CC00046088316A200831245088316A1008312EA
:100CD00044088316A0007C08FE008312E42401303F
:100CE000C4070318C50A0319C60A0319C70AFD0178
:100CF00047088316A300831246088316A2008312B6
:100D000045088316A100831244088316A0008312AD
:100D10003908FE00E4240130C4070318C50A03198A
:100D2000C60A0319C70A3B08FC00FD0147088316E1
:100D3000A300831246088316A20083124508831677
:100D4000A100831244088316A0007C08FE008312D1
:100D5000E4240130C4070318C50A0319C60A03199D
:100D6000C70A3A08FC00FD0147088316A300831256
:100D700046088316A200831245088316A100831239
:100D800044088316A0007C08FE008312E42401308E
:100D9000C4070318C50A0319C60A0319C70A3D0880
:100DA000FC00FD0147088316A30083124608831642
:100DB000A200831245088316A100831244088316FB
:100DC000A0007C08FE008312E4240130C40703184D
:100DD000C50A0319C60A0319C70A3C08FC00FD012D
:100DE00047088316A300831246088316A2008312C5
:100DF00045088316A100831244088316A0007C08CE
:100E0000FE008312E4240130C4070318C50A031945
:100E1000C60A0319C70AFD0147088316A3008312F7
:100E200046088316A200831245088316A100831288
:100E300044088316A00083123E08FE00E42401301B
:100E4000C4070318C50A0319C60A0319C70A4008CC
:100E5000FC00FD0147088316A30083124608831691
:100E6000A200831245088316A1008312440883164A
:100E7000A0007C08FE008312E4240130C40703189C
:100E8000C50A0319C60A0319C70A3F08FC00FD0179
:100E900047088316A300831246088316A200831214
:100EA00045088316A100831244088316A0007C081D
:100EB000FE008312E4240130C4070318C50A031995
:100EC000C60A0319C70A4208FC00FD014708831639
:100ED000A300831246088316A200831245088316D6
:100EE000A100831244088316A0007C08FE00831230
:100EF000E4240130C4070318C50A0319C60A0319FC
:100F0000C70A4108FC00FD0147088316A3008312AD
:100F100046088316A200831245088316A100831297
:100F200044088316A0007C08FE008312E4240130EC
:100F3000C4070318C50A0319C60A0319C70A8A1584
:100F4000002E08308316B0007708B1008617000025
:100F500006178312061BAE2F8316A92F861B0314B8
:100F6000861F0310F80D0000831606138312061364
:100F70008316B00BA62F86170000831286138316E4
:100F80003108031D8613000006178312061BCA2FA3
:100F90008316C52F00000613831606130000831264
:0C0FA00086138316861383128A156628B8
:10100000831686170000061700008312061B0A28A5
:101010008316052886138316861300008312061391
:10102000831606130310290DA038AF0000302C18CA
:101030000130F700F70DF70DF70DF830F7057708D9
:101040002F04B100B4008A118312AB248A158316D1
:101050002B08B0002C08B1002D08B200B3013008F5
:10106000B4008A118312AB248A1583162A08B400AF
:101070008A118312AB248A1583168617000006177F
:1010800000008312061B4628831641288613831608
:101090008613000083120613831606130310290D0E
:1010A000A138AF0000302C180130F700F70DF70D14
:1010B000F70DF830F70577082F04B100B4008A1156
:1010C0008312AB248A15F7018A11A12F8A1578089B
:1010D0008316AE008613000006178312061B7228C3
:1010E00083166D280000000000000000831686179C
:1010F00000002E08F800831200348316A901831221
:1011000047088316AD00831246088316AC0083128D
:1011100045088316AB00831244088316AA00831285
:10112000002078088316A00001308312440783163C
:10113000A100831245088316A20000300318013075
:10114000A207831246088316A3000030031801305B
:10115000A307831247088316A40000300318013048
:10116000A407A9012408AD002308AC002208AB00A5
:101170002108AA008312002078088316A2000230FA
:10118000831244078316A300831245088316A40024
:10119000003003180130A407831246088316A50007
:1011A000003003180130A507831247088316A600F4
:1011B000003003180130A607A9012608AD00250854
:1011C000AC002408AB002308AA0083120020780892
:1011D0008316A4000330831244078316A5008312EC
:1011E00045088316A600003003180130A6078312B5
:1011F00046088316A700003003180130A7078312A2
:1012000047088316A800003003180130A807A90179
:101210002808AD002708AC002608AB002508AA0066
:101220008312002078088316A60020088312B300DA
:10123000831622088312B200831624088312B10099
:10124000831626088312B0000130C4070318C50AAC
:101250000319C60A0319C70A0130C4070318C50ACF
:101260000319C60A0319C70A0130C4070318C50ABF
:101270000319C60A0319C70A0130C4070318C50AAF
:101280000319C60A0319C70A8316A901831247085E
:101290008316AD00831246088316AC0083124508FE
:1012A0008316AB00831244088316AA008312002021
:1012B00078088316A0000130831244078316A1002A
:1012C000831245088316A200003003180130A207DC
:1012D000831246088316A300003003180130A307C9
:1012E000831247088316A400003003180130A407B6
:1012F000A9012408AD002308AC002208AB00210896
:10130000AA008312002078088316A2002008831206
:10131000B600831622088312B5000130C4070318F3
:10132000C50A0319C60A0319C70A0130C4070318FE
:10133000C50A0319C60A0319C70A8316A90183122D
:1013400047088316AD00831246088316AC0083124B
:1013500045088316AB00831244088316AA00831243
:10136000002078088316A0000130831244078316FA
:10137000A100831245088316A20000300318013033
:10138000A207831246088316A30000300318013019
:10139000A307831247088316A40000300318013006
:1013A000A407A9012408AD002308AC002208AB0063
:1013B0002108AA008312002078088316A2002008C2
:1013C0008312B800831622088312B7000130C407C5
:1013D0000318C50A0319C60A0319C70A0130C4074E
:1013E0000318C50A0319C60A0319C70A8316A901F7
:1013F000831247088316AD00831246088316AC009B
:10140000831245088316AB00831244088316AA0092
:10141000831200207808B9000130C4070318C50AF8
:101420000319C60A0319C70A8316A90183124708BC
:101430008316AD00831246088316AC00831245085C
:101440008316AB00831244088316AA00831200207F
:1014500078088316A0000130831244078316A10088
:10146000831245088316A200003003180130A2073A
:10147000831246088316A300003003180130A30727
:10148000831247088316A400003003180130A40714
:10149000A9012408AD002308AC002208AB002108F4
:1014A000AA008312002078088316A2002008831265
:1014B000BB00831622088312BA000130C407031848
:1014C000C50A0319C60A0319C70A0130C40703185D
:1014D000C50A0319C60A0319C70A8316A90183128C
:1014E00047088316AD00831246088316AC008312AA
:1014F00045088316AB00831244088316AA008312A2
:10150000002078088316A000013083124407831658
:10151000A100831245088316A20000300318013091
:10152000A207831246088316A30000300318013077
:10153000A307831247088316A40000300318013064
:10154000A407A9012408AD002308AC002208AB00C1
:101550002108AA008312002078088316A200200820
:101560008312BD00831622088312BC000130C40719
:101570000318C50A0319C60A0319C70A0130C407AC
:101580000318C50A0319C60A0319C70A8316A90155
:10159000831247088316AD00831246088316AC00F9
:1015A000831245088316AB00831244088316AA00F1
:1015B000831200207808BE000130C4070318C50A52
:1015C0000319C60A0319C70A8316A901831247081B
:1015D0008316AD00831246088316AC0083124508BB
:1015E0008316AB00831244088316AA0083120020DE
:1015F00078088316A0000130831244078316A100E7
:10160000831245088316A200003003180130A20798
:10161000831246088316A300003003180130A30785
:10162000831247088316A400003003180130A40772
:10163000A9012408AD002308AC002208AB00210852
:10164000AA008312002078088316A20020088312C3
:10165000C000831622088312BF000130C40703189C
:10166000C50A0319C60A0319C70A0130C4070318BB
:10167000C50A0319C60A0319C70A8316A9018312EA
:1016800047088316AD00831246088316AC00831208
:1016900045088316AB00831244088316AA00831200
:1016A000002078088316A0000130831244078316B7
:1016B000A100831245088316A200003003180130F0
:1016C000A207831246088316A300003003180130D6
:1016D000A307831247088316A400003003180130C3
:1016E000A407A9012408AD002308AC002208AB0020
:1016F0002108AA008312002078088316A20020087F
:101700008312C200831622088312C1000130C4076D
:101710000318C50A0319C60A0319C70A0130C4070A
:101720000318C50A0319C60A0319C70A8A15202E09
:10173000F701F801F901FA018316B201B301B4010E
:10174000B501310830042F042E040319D72B2030A3
:10175000B6000310AA0DAB0DAC0DAD0DB20DB30D5F
:10176000B40DB50D31083502031DC02B300834020D
:10177000031DC02B2F083302031DC02B2E0832027D
:10178000031CD12B2E08B2022F08031C2F0FB3020B
:101790003008031C300FB4023108031C310FB502AE
:1017A0000314F70DF80DF90DFA0DB60BA92B000077
:1017B000B23084008312003404088316A4003B3046
:1017C000A9009A30A800CA30A700A6010A30A500D7
:1017D0002308AD002208AC002108AB002008AA00B5
:1017E0002908B1002808B0002708AF002608AE007D
:1017F0008312982300088316A000840A0008A10021
:10180000840A0008A200840A0008A300FD308407AF
:10181000F708031D1E2C2508013A03191E2C240865
:1018200003191F2C0F3925020319182C0318292C12
:10183000A41B292C241B1F2C2030202CA401303069
:10184000F707770883120C1A272C8316222C99008D
:1018500083162908AD002808AC002708AB0026082D
:10186000AA00B101B001AF010A30AE008312982383
:101870007A088316A9007908A8007808A7007708D5
:10188000A600A50BE82B8312003404088316A500DC
:101890007D0EF038A100A107E23EA200323EA40076
:1018A0007D080F39A207A207A407E93EA300A307FA
:1018B000A3077C0E0F39A307A407A30DA40DA40949
:1018C000A40D7C080F39A407A10D0730A0000A3031
:1018D000A407A303031C682CA307A203031C6C2CFE
:1018E000A207A103031C702CA107A003031C742CE6
:1018F000A03084000730250525138407A430040296
:10190000031925170008F700031D8E2C251B8E2CAC
:10191000251A9A2CA5198E2C2030912CA51525124C
:101920003030F707770883120C1A982C8316932C03
:1019300099008316840A251F7E2C83120034FC0133
:101940007C088A1138208A1500380319AC2CFC0A4F
:101950000C1EA82C9900A02C463084003308831656
:10196000A300831232088316A20083123108831663
:10197000A100831230088316A0008312DC232C30D0
:101980000C1EC02C9900FC017C088A1144208A1589
:1019900000380319D02CFC0A0C1ECC2C9900C42C46
:1019A000083084003608FD003508FC0045242E3040
:1019B0000C1ED82C9900093084003808FD00370827
:1019C000FC0045242C300C1EE32C990039080C1E19
:1019D000E72C99002C300C1EEB2C99000830840069
:1019E0003B08FD003A08FC0045242E300C1EF62C66
:1019F0009900093084003D08FD003C08FC004524A6
:101A00002C300C1E012D99003E080C1E052D99004E
:101A10002C300C1E092D99000A3084004008FD006E
:101A20003F08FC0045242E300C1E142D99000A306E
:101A300084004208FD004108FC0045242C300C1EA7
:101A40001F2D99004130840047088316A30083129C
:101A500046088316A200831245088316A10083124C
:101A600044088316A0008312DC230D300C1E362D93
:101A700099000A300C1E3A2D99008A15212E8401F6
:101A80001F308305703083168F0019309900223083
:101A9000980090308312980083161F129F121B0823
:101AA00080399B0007309C008312AA01AB010130F2
:101AB000AC00AD01AE01AF014310C3144311C4012A
:101AC000C501C601C701C801F501F60170308316D2
:101AD0008F001F129F121B0880399B0083121F105A
:101AE000073083169C0005080630F700F70B762DAB
:101AF00000001C0883120D1383160108C73908382B
:101B00008100831290010030F800920000308316AB
:101B10009200C03083128B0483168C160512831238
:101B200005168A1192288A153230FC008A119820F5
:101B30008A15831605158312051DA02D4314A12DAA
:101B40004310FA30FC008A1198208A154318072E9A
:101B5000831605158312051DA82D83160512831201
:101B60000512C701C601C501C401C708031D062E21
:101B70004608013C031C062E43118A11AB208A152E
:101B80007808243C031DBD2D8A11AB208A157808E6
:101B9000473C031DF62D8A11AB208A157808503C6E
:101BA000031DF62D8A11AB208A157808523C031DBF
:101BB000F62D8A11AB208A1578084D3C031DF62DB1
:101BC0008A11AB208A157808433C031DF62D831635
:101BD0000512831205168A11512C8A1583160512D7
:101BE000831205123408413C03194315C31C052E0A
:101BF000431D052E83160510831205148A11872DA7
:101C00008A158316051083120510B52D262E0C306B
:101C10008316990026309800051283120512C70119
:101C2000C601C501C401C708031D222E4608013C98
:101C3000031C222E831605100130831285067D2891
:101C40009F2C132E83160510831205108316051280
:101C5000103083128506FA30FC008A1198208A150C
:041C6000262E6300C9
:04400E00383FFF3FF9
:00000001FF
;PIC16F88
