:020000040000FA
:04000000BFEF09F055
:08000800E8CF05F0D8CF06F0A7
:10001000E0CF07F00001E9CF0DF0EACF08F0E1CF23
:1000200009F0E2CF0AF0D9CF0BF0DACF0CF0F3CF22
:1000300014F0F4CF15F0FACF16F000C00FF001C0A5
:1000400010F002C011F003C012F004C013F09DAA1A
:100050002DEF00F09EBA03EF07F0A0AA33EF00F0F7
:10006000A1BAC2EF06F00FC000F010C001F011C03D
:1000700002F012C003F013C004F00DC0E9FF08C085
:10008000EAFF09C0E1FF0AC0E2FF0BC0D9FF0CC0C4
:10009000DAFF14C0F3FF15C0F4FF16C0FAFF05C065
:1000A000E8FF07C0E0FF06C0D8FF1000F76ABC0FEA
:1000B000F66E000EF7220900F5501200040300004E
:1000C0000000000000000000000000000DAE03D0A2
:1000D000F2CF0EF0F29EF76AEE0FF66E000EF722E8
:1000E0000900F5500DAE02D00EBEF28E1200400097
:1000F00040000000000000000000000000000000C0
:100100000000000000000000000000000000F76A8E
:100110001E0FF66E010EF7220900F55012000600C0
:10012000FF0901A101190129081580257F7508958E
:1001300008810219012908750895089102C0F76A1B
:100140004E0FF66E010EF7220900F5501200000066
:10015000F76A600FF66E010EF7220900F5501200E3
:100160002000F76A720FF66E010EF7220900F550B3
:10017000120009022900010100C032090400000236
:100180000300000009210001000122200007058171
:10019000034000010705010340000100F76AAC0FAE
:1001A000F66E010EF7220900F55012000100F76A01
:1001B000BE0FF66E010EF7220900F5501200120173
:1001C0001001000000406104200000010102000154
:1001D000F76AE00FF66E010EF7220900F5501200E3
:1001E0000403090408035300410043001C035300A7
:1001F00065006D00690066006C00750069006400B0
:100200002E0063006F006D00F2CF0EF0F29EF76AD1
:10021000220FF66E020EF7220900F5500EBEF28E86
:1002200012000D0A0A55534220636F6E6E656374A7
:1002300065642C2077616974696E6720666F72202F
:10024000656E756D61726174696F6E00F2CF0EF04C
:10025000F29EF76A660FF66E020EF7220900F5505D
:100260000EBEF28E12000D0A0A55534220646973C5
:10027000636F6E6E65637465642C20776169746961
:100280006E6720666F7220636F6E6E656374696F50
:100290006E00F2CF0EF0F29EF76AAC0FF66E020E11
:1002A000F7220900F5500EBEF28E12000D0A0A5513
:1002B000534220656E756D65726174656420627964
:1002C0002050432F484F53540000F2CF0EF0F29EBF
:1002D000F76AE40FF66E020EF7220900F5500EBE23
:1002E000F28E12000D0A0A55534220756E656E7526
:1002F0006D6572617465642062792050432F484FA8
:1003000053542C2077616974696E6720666F722080
:10031000656E756D65726174696F6E006D9269943A
:100320006894CDEF06F06A6A6892D6EF06F0020193
:10033000586B58530AE1036A5851280FE96E000EB2
:100340000320EA6EEF6A582BF4D71B6A010E1C6E6D
:100350001A6A0001000C010E0201616F61510F0861
:100360000EE3700E6125016E0F0E036ED8B0032AE6
:1003700001C0E9FF03C0EAFFEF6A612BEFD71F6AF4
:100380001E6A0001000C400E0401016F050E036F90
:10039000026B880E006F046B050E076F400E066F30
:1003A0000001000C6A6A686A9F0E6B6E390E696EF6
:1003B0006E6ABDDFD0DF160E706E68A602D068963A
:1003C000FCD76D98E0DF030E206EDCEF06F0698449
:1003D00068986D82E2EF06F0689CE8EF06F070A086
:1003E00002D0D1DF7090689AEEEF06F05CC221F087
:1003F000000CFF0E216E000C02015A6B275234E0F4
:100400005A513F0831E31D50FC0F21E2040F000157
:100410003FEF02F0036A2650A4DEE8CF5BF2020150
:1004200016D0036A265073DEE8CF5BF202010FD0CC
:10043000036A2650CDDEE8CF5BF2020108D0036AE2
:100440002650B5DEE8CF5BF2020101D00201262A78
:1004500027065A515A2B036A400FE96E050E0320F6
:10046000EA6E5BC2EFFFCAD7275204E15A51400837
:1004700001E01A6A5AC25CF20001B8DF000CE824FD
:10048000990FF66E040EF76ED8B0F72A0A00F550F1
:10049000FA6E0800F550F96E1404220430043E048C
:1004A000266A1D6A05010351010A000109E0030AD9
:1004B0000CE0010A0DE0220A1DE0030A28E053D0F7
:1004C000120E276E030E1D6E50D0290E276E4DD0D2
:1004D000020E1D6E036A05010251220FE96E000E25
:1004E0000320EA6EEFCF26F0036A2650000170DE8B
:1004F000276E3BD0120E266E263C01D006D0036A32
:1005000026502FDE276E31D002D073DF3AD0D8903C
:1005100005010435036AF2CF5AF2F29E00010FDEA4
:100520000900F5CF03F002015ABFF28E266E263C79
:1005300001D016D0010E1D6ED89005010435036A56
:10054000F2CF5AF2F29E000103DE0900F5CF03F06C
:1005500002015ABFF28E276E000107D004D00201BB
:10056000000147DF0ED045DF0CD00501075305E140
:100570002750065D02E206C527F0010E1A6E000143
:100580003BDF000C0201595306E1040E206E00010E
:10059000E2DEC3D00201050E206E5C6F800E5B6F41
:1005A000010E5A6F5A510F08D8A0B7D05D6B036A7D
:1005B0005A5100017BDD000A57E0040E02015D6F15
:1005C000D8905A35036AF2CF61F2F29E00017EDDC7
:1005D0000900F5CF03F0020161BFF28E5E6F03C028
:1005E0005FF25A51080DF350010F016E040E036EB5
:1005F000D8B0032A01C0E9FF03C0EAFF5EC2EFFFE3
:100600005A51080DF350020F016E040E036ED8B05C
:10061000032A01C0E9FF03C0EAFF5CC2ECFFED5210
:100620005BC2EFFFD8905A35036AF2CF61F2F29EB7
:1006300000014CDD0900F5CF03F0020161BFF28E2D
:100640005B2703505C23880E606F5FB160815FB3EE
:1006500060835A51080DF3CF01F0040E01C0E9FF89
:10066000EA6E60C2EFFF0001036A02015A51000105
:100670001DDD000A34E002015D835A51080DF3507C
:10068000060F016E040E036ED8B0032A01C0E9FF05
:1006900003C0EAFF5CC2ECFFED525BC2EFFFD890F3
:1006A0005A35036AF2CF61F2F29E00010FDD0900B4
:1006B000F5CF03F0020161BFF28E5B2703505C238C
:1006C0005A51080DF350040F016E040E036ED8B09A
:1006D000032A01C0E9FF03C0EAFF400EEF6E0201EA
:1006E0005D51060802E10E0E5D6F036A5A5100016A
:1006F000DDDC020802E002015D89700E02015A256C
:10070000016E0F0E036ED8B0032A01C0E9FF03C0CB
:10071000EAFF5DC2EFFF5A2B45D70001E1EF03F07E
:100720000501015100010DE0010A15E0020A20E077
:10073000060A2AE0030A31E00E0A31E0010A37E036
:1007400046D01CC040F50501416B020E02015C6FF2
:1007500000014CDE3ED00501022D07D0010E1C1613
:1007600002015C6B000142DE02D0000142DE31D0AA
:100770000501022D06D01C8202015C6B000136DEF1
:1007800002D0000136DE25D0020E1A6E02C525F019
:1007900002015C6B00012ADE1CD082DE1AD01BC075
:1007A00040F5010E02015C6F000120DE12D0050150
:1007B000025101080AE302C51BF002C559F200010B
:1007C000E1D602015C6B000111DE000102D011DEF6
:1007D00000D021EF05F01BC059F2050101510001C5
:1007E00007E00A0A0EE0010A2DE00D0A40E041D0C0
:1007F0000501406B416B020E02015C6F0001F6DDEA
:100800003AD0020159531BE0010E595D036A000101
:10081000C5DC016E0501045DD8A002D002010FD035
:10082000036A0451280FE96E000E0320EA6EEFCF31
:1008300040F5010E02015C6F0001D8DD02D000011D
:10084000D8DD19D0020159530FE0036A05010451A4
:10085000280FE96E000E0320EA6E02C5EFFF0201C9
:100860005C6B0001C3DD02D00001C3DD04D018DEE3
:1008700002D0BFDD00D021EF05F002015A9159BF2F
:100880005A81599F5AA10DD0036A595100010EDCBB
:10089000000A02E1000E01D0010E016E0DD00CD055
:1008A0000201036A5951000101DC000A02E1000E55
:1008B00001D0010E016E00D0D4EF04F002015A9174
:1008C00059BF5A81599F5AA110D05951080DF35060
:1008D000040F016E040E036ED8B0032A01C0E9FFB5
:1008E00003C0EAFF880EEF6E09D05951080DF3CF0F
:1008F00001F0040E01C0E9FFEA6EEF6A0001E3EFC8
:1009000004F002015A9159BF5A81599F5AA110D03F
:100910005951080DF350040F016E040E036ED8B048
:10092000032A01C0E9FF03C0EAFF840EEF6E0AD07C
:100930005951080DF3CF01F0040E01C0E9FFEA6E32
:10094000840EEF6E0001EBEF04F002015A9159BFE3
:100950005A81599F5AA110D05951080DF350040FD4
:10096000016E040E036ED8B0032A01C0E9FF03C074
:10097000EAFFEFCF5BF20AD05951080DF3CF01F037
:10098000040E01C0E9FFEA6EEFCF5BF25BAF02D06D
:100990005BB502D0000E01D0010E016E0001F7EF31
:1009A00004F004C559F269D701522EE00501015146
:1009B000010A000105E0020A0BE0030A11E022D05F
:1009C00004C559F27BD702015C6B00010FDD1CD01E
:1009D00004C559F296D702015C6B000107DD14D003
:1009E0000501406B416B04C559F20001AED70152BD
:1009F00003E0010E0501406F020E02015C6F000171
:100A0000F5DC02D0F6DC00D021EF05F00501015144
:100A100000D00001EEDC00D021EF05F01A6A0501DC
:100A200000517F0B000107E0010A06E0030A05E020
:100A3000230A04E004D074D6CED6B3D7E7D7D9DCE6
:100A400000D05BEF06F002015951080DF3CF01F021
:100A5000040E01C0E9FFEA6EEFCF5BF25A510208C3
:100A600006E15BAD02D05A6B02D0010E5A6F5A51AB
:100A7000030812E1840E5B6F5951080DF350040F07
:100A8000016E040E036ED8B0032A01C0E9FF03C053
:100A9000EAFF840EEF6E09D05A2D03D0C80E5B6FAB
:100AA00004D05A5302E1880E5B6F036A010E026E96
:100AB0005951006E05E0D89002360336002EFBD760
:100AC0000250FF0A006EFF0E031A00501E1603505C
:100AD0001F16D8905935036AF2CF5EF2F29E0001DC
:100AE00066EC00F00900F5CF03F002015EBFF28E64
:100AF0005C6F03C05DF25951080DF350010F016E98
:100B0000040E036ED8B0032A01C0E9FF03C0EAFF58
:100B10005CC2EFFF5DB15B815DB35B835951080D32
:100B2000F3CF01F0040E01C0E9FFEA6E5BC2EFFFF4
:100B30000001000C02015951080DF350040F016E21
:100B4000040E036ED8B0032A01C0E9FF03C0EAFF18
:100B5000EFCF5DF25DBF5BD05951080DF350050F2B
:100B6000016E040E036ED8B0032A01C0E9FF03C072
:100B7000EAFF5AC2EFFF5C51020816E15951080D15
:100B8000F350040F016E040E036ED8B0032A01C0A7
:100B9000E9FF03C0EAFFEFCF5DF25DAD02D05C6B11
:100BA00002D0010E5C6F13D05C51040810E1595162
:100BB000080DF3CF01F0040E01C0E9FFEA6EEFCF9C
:100BC0005DF25DAD03D0010E5C6F01D05C6B5C2DFE
:100BD00003D0C80E5D6F04D05C5302E1880E5D6FD8
:100BE0005BB15D815BB35D835951080DF350040F18
:100BF000016E040E036ED8B0032A01C0E9FF03C0E2
:100C0000EAFF5DC2EFFF010E016E03D000D0000EBF
:100C1000016E0001000C0201595305E10001C3EC13
:100C200001F010D00201036A010E026E5951006EEC
:100C300005E0D89002360336002EFBD702501E1274
:100C400003501F120001000C5AC26EFF02015A53DA
:100C500003E0040E206E02D0020E206E000136EF7B
:100C600006F01B6A1A6A25C05AF2EED747EF06F063
:100C7000020159530DE11A2C05D00001FCEC01F0E2
:100C800006D002011A50020803E10001EAD702016E
:100C90000001000C6C300201586F583358331F0E9E
:100CA00058176C5246E1040100513C0B340821E115
:100CB000046B0001B3D6213C07D00201596B030E2F
:100CC0005A6F0001C0DE12D00201596B020E5A6F3A
:100CD0000001B9DE2150FE0809E00201596B5B6B8F
:100CE00021C05AF2040E5C6F000124DF6D981ED003
:100CF000040100513C0B04081AE10201596B000188
:100D00008ADF0201596B020E5A6F00019CDE2150EE
:100D1000FE080CE0213C01D009D00201596B5B6B4D
:100D200021C05AF2010E5C6F000104DF040127D0DC
:100D300002016C50040816E1FF0E216E596B000190
:100D400097DF213C01D00AD00201596B5B6B21C0B7
:100D50005AF2020E5C6F0001EDDE02D0C3EC01F02E
:100D60000DD002016CB406D058C259F2000153DF15
:100D700005D0020158C259F200017ADF04010001D6
:100D8000F3EF06F0205201E12FD068522DE068A465
:100D900004D069A402D08EEF01F06DA201D024D05E
:100DA00068A204D069A202D093EF01F068A004D039
:100DB00069A002D0D2EF01F068A804D069A802D0DF
:100DC000E7EF01F068AC04D069AC02D0ECEF01F0C1
:100DD00068AA04D069AA02D0EFEF01F068A604D097
:100DE00069A602D057D76896A19A33EF00F09EAA61
:100DF000FED7ABCF19F0AECF01F019A202D0AB985D
:100E0000AB880000000CF29CF29EF2BEFDD7EFDF33
:100E100001C064F202016451120A000101E02DD008
:100E2000E6DF0150340802E0000E01D0010E02019D
:100E3000666F0001DCDF0150560802E0000E01D0B1
:100E4000010E02016615686F0001D1DF01507808BC
:100E500002E0000E01D0010E020168156A6F000168
:100E6000C6DF0150900802E0000E01D0010E020121
:100E70006A15D8A4FF00000100D0C00EF2129E9A9D
:100E800033EF00F06D6A696A080E6F6E9450300996
:100E90000201946E206A186AF2BE188EF29E00015A
:100EA00097EC01F018BEF28E1F6A1E6A01EF08F07F
:100EB000186AF2BE188EF29E97EC01F018BEF28E00
:100EC0006D6A140E6F6E696A6D86010E206E6CEF8E
:100ED00007F06DB601D0ECD7202C0BD06DBA09D03D
:100EE000686A696AA08AC00EF212110E696E020E5B
:040EF000206E000C64
:1010000041D767DF20500208FCE1FCEF09F0020E37
:10101000EA6E460EE96EEF500EE00F0E016E006AAA
:10102000002EFED7012EFBD78F0E006E002EFED7AE
:101030000000EF2EF2D7000C010E0201466F1BC01C
:1010400047F2465319E0295217E1486B4851000115
:1010500004EC01F00201482B006E00509EA8FED760
:10106000AD6E290E485DF2E1030E496F2E0E9EA86B
:10107000FED7AD6E492FFAD7465319E1295217E032
:10108000486B4851000126EC01F00201482B006E2C
:1010900000509EA8FED7AD6E2B0E485DF2E1030E08
:1010A000496F2E0E9EA8FED7AD6E492FFAD7475333
:1010B00011E02A520FE1486B4851000149EC01F060
:1010C0000201482B006E00509EA8FED7AD6E1C0E8C
:1010D000485DF2E1475319E12A5217E0486B485145
:1010E000000165EC01F00201482B006E00509EA843
:1010F000FED7AD6E370E485DF2E1030E496F2E0E3E
:101100009EA8FED7AD6E492FFAD746C229F047C236
:101110002AF000010AEF0AF002014B51080DF350CA
:10112000020F016E040E036ED8B0032A01C0E9FF5E
:1011300003C0EAFFECCF03F0ED52EFCF50F203C053
:1011400051F24B51080DF350010F016E040E036E66
:10115000D8B0032A01C0E9FF03C0EAFFEF50036AD9
:10116000536F03C054F24B51080DF3CF01F0040E3E
:1011700001C0E9FFEA6EEFCF52F252B1548152B38F
:10118000548354514F5D08E303E14E51535D04E233
:1011900054C24FF253C24EF2546B536B54514F5DD5
:1011A0001AE303E14E51535D16E250C2E9FF51C20A
:1011B000EAFFEFCF57F24DC2EAFF4CC2E9FF57C238
:1011C000EFFF4C2BD8B44D2B502BD8B4512B532BB5
:1011D000D8B4542BE3D74EC201F04FC202F0000145
:1011E000FDEF08F046C24BF248C24DF247C24CF246
:1011F0004AC24FF249C24EF28FD702C04AF201C032
:1012000049F2186AF2BE188EF29E46C259F2020ED8
:1012100002015A6F000117DC18BEF28E020149C2AA
:1012200001F04AC202F000011AEF0AF046C248F289
:1012300002014C6B4C5107081BE347C200F04C51B4
:10124000016E04E0D8900032012EFCD70050010B53
:10125000496F4851010B4A6F49514A19010B4B6FB5
:10126000D89048334B5302E08C0E481B4C2BE2D7EE
:1012700048C201F00001000C016A026A006A036AB8
:1012800002014D5102E14C5118E0100E4E6FD89002
:101290004A374B37003603364D51035C02E14C515F
:1012A000005C07E34C51005ED8A003064D51035E7D
:1012B000D880013602364E2FEAD700000001000C1C
:1012C00002014651080DF350040F016E040E036E27
:1012D000D8B0032A01C0E9FF03C0EAFFEFCF4EF206
:1012E0004EBF48D04651080DF350060F016E040E54
:1012F000036ED8B0032A01C0E9FF03C0EAFFECCFB8
:1013000003F0ED52EFCF4FF203C050F24D6B4C6B38
:101310004D514A5D1AE303E149514C5D16E247C263
:10132000E9FF48C2EAFFEFCF53F250C2EAFF4FC2D3
:10133000E9FF53C2EFFF4F2BD8B4502B472BD8B443
:10134000482B4C2BD8B44D2BE3D7186AF2BE188E1D
:10135000F29E46C259F24AC25BF249C25AF24BC2ED
:101360005CF200019AEC05F018BEF28E015004D038
:1013700000D00201000E016E000156EF0CF0F86A79
:10138000D09E0D8EEA6AE96AB896190EAF6E260EE7
:10139000AC6E900EAB6EC150C00B0F09C16E070E44
:1013A000B46E196A206A226A040E236E0C0E246E33
:1013B000276A296A2A6AC150C00B0E09C16EC09003
:1013C000C082C084C09EC280880ED56ECD6A000ED9
:1013D000CA6E7F0ECB6EB150480BB509B16EB70E19
:1013E000B1169484BD6ABD6AB1169482BA6ABA6AAB
:1013F0009D8AC00EF21204D62B80000E016EC250E0
:10140000C30B0110C26E010E0201466F0001FFDD29
:1014100060DD12D61B52D8B44FD21EA24DD2010E9F
:101420000201466F486B2C0E476F4A6B080E496FDE
:101430000001D8D62BA035D002013C6B3CC246F24D
:101440002CC047F20001F2DE01C03CF23CC246F281
:101450002DC047F2EBDE01C03CF23CC246F22EC08A
:1014600047F2E4DE01C03CF23CC246F22FC047F234
:10147000DDDE01C03CF23CC246F230C047F2D6DEAF
:1014800001C03CF23CC246F231C047F2CFDE01C09F
:101490003CF23CC246F232C047F2C8DE01C03CF228
:1014A00002D033C03CF233C03CF202013C53D8B40A
:1014B000FED1FF0E346E356E366E376E386E396E75
:1014C0003A6E020E2C5CF50FD8B0ACD10B0F0001B8
:1014D0005EEF0CF02DC047F22EC046F202012D50F7
:1014E000020814E303E14651000810E3346A020ED7
:1014F000356E2DC036F02EC037F03C0E2E24E96E2E
:10150000000E2D20EA6EEFCF38F008D0420E346E78
:10151000020E356E2DC036F02EC037F083D12DC0AF
:1015200047F22EC046F202012D50020816E303E1F5
:101530004651000812E33C0E2E24E96E000E2D20C9
:10154000EA6E2FC0EFFF346A030E356E2DC036F001
:101550002EC037F02FC038F00AD0420E346E030E82
:10156000356E2DC036F02EC037F02FC038F05AD16E
:10157000C282C2B2FED7C4CF3DF20201346A040E69
:10158000356E3DC236F04ED12DC047F22EC046F228
:1015900002012D50020830E303E1465100082CE31C
:1015A000B36AB26A3F6B3E6B2DC003F02EC001F0F0
:1015B0003F512D5C13E303E101503E5D0FE23C0E11
:1015C0003E25E96E000E3F21EA6EC282C2B2FED70E
:1015D000C4CFEFFF3E2BD8B43F2BE6D7B250B3CFEA
:1015E00003F0446F03C045F2346A050E356E2DC01A
:1015F00036F02EC037F008D0420E346E050E356E30
:101600002DC036F02EC037F00DD1346A060E356E7F
:10161000020145C236F044C237F004D12DC047F272
:101620002EC046F202012D50020852E303E146515A
:1016300000084EE32FC041F230C040F23F6B3E6BDA
:101640002DC003F02EC001F03F512D5C35E303E1C6
:1016500001503E5D31E2B36AB26A3C0E3E25E96E4E
:10166000000E3F21EA6EC282C2B2FED7C4CFEFFFA6
:10167000B250B3CF03F0466F03C047F2D89046355F
:10168000486F4735496F49C24BF248C24AF24D6B29
:10169000030E4C6F0001F0DD02C04AF201C049F2B6
:1016A00002014A51415D04E3E3E14051495DE0E359
:1016B0003E2BD8B43F2BC4D7346A0C0E356E2DC0E8
:1016C00036F02EC037F02FC038F030C039F00CD0D3
:1016D000420E346E0C0E356E2DC036F02EC037F033
:1016E0002FC038F030C039F09DD02DC047F22EC049
:1016F00046F202012D5002084EE303E14651000874
:101700004AE32FC043F230C042F23F6B3E6B2DC024
:1017100003F02EC001F03F512D5C31E303E1015095
:101720003E5D2DE2B36AB26A3C0E3E25E96E000EC4
:101730003F21EA6EC282C2B2FED7C4CFEFFFB250E1
:10174000B3CF03F0466F03C047F247C24BF246C225
:101750004AF2050E4D6FDC0E4C6F00018DDD02C0AC
:1017600048F201C047F202014851435D04E3E7E15A
:101770004251475DE4E33E2BD8B43F2BC8D7346ACF
:10178000070E356E2DC036F02EC037F02FC038F062
:1017900030C039F00CD0420E346E070E356E2DC0BD
:1017A00036F02EC037F02FC038F030C039F03AD0C4
:1017B00002013F6B3E6B3F5101080BE33C0E3E259F
:1017C000E96E000E3F21EA6EEF6A3E2BD8B43F2B44
:1017D000F2D7346A080E356E25D002013F6B3E6B9E
:1017E0003F5101080CE33C0E3E25E96E000E3F21FF
:1017F000EA6E2DC0EFFF3E2BD8B43F2BF1D7346AF1
:10180000090E356E2DC036F00DD02B80346A0A0ECD
:10181000356E020107D02B90346A0B0E356E020133
:1018200001D002012BA036D03C6B3CC246F234C042
:1018300047F20001FBDC01C03CF23CC246F235C07D
:1018400047F2F4DC01C03CF23CC246F236C047F23B
:10185000EDDC01C03CF23CC246F237C047F2E6DCA8
:1018600001C03CF23CC246F238C047F2DFDC01C0A6
:101870003CF23CC246F239C047F2D8DC01C03CF22F
:101880003CC246F23AC047F2D1DC01C03CF23CC255
:101890003BF00201010E466F486B340E476F4A6BF6
:1018A000080E496F020E4B6F00010AD50201010EAE
:1018B000466F000107EC08F0ABD50300F2CF0EF045
:1018C000F29EE824E10FF66E180EF76ED8B0F72AF4
:1018D0000A00F550FA6E0800F5500EBEF28EF96E51
:1018E000D4141E15701588150A16EA16B017DA17E3
:0618F0000A1816181C1670
:020000040030CA
:0E000000240E3F1E008381000FC00FE00F4052
:00000001FF
;PIC18F2550
